{
  "contractName": "SupplyChain",
  "abi": [
    {
      "anonymous": false,
      "inputs": [
        {
          "indexed": false,
          "internalType": "uint256",
          "name": "productId",
          "type": "uint256"
        },
        {
          "indexed": false,
          "internalType": "uint256",
          "name": "timestamp",
          "type": "uint256"
        },
        {
          "indexed": false,
          "internalType": "address",
          "name": "from",
          "type": "address"
        },
        {
          "indexed": false,
          "internalType": "address",
          "name": "to",
          "type": "address"
        }
      ],
      "name": "OwnershipTransferred",
      "type": "event"
    },
    {
      "anonymous": false,
      "inputs": [
        {
          "indexed": false,
          "internalType": "uint256",
          "name": "id",
          "type": "uint256"
        },
        {
          "indexed": false,
          "internalType": "string",
          "name": "name",
          "type": "string"
        },
        {
          "indexed": false,
          "internalType": "string",
          "name": "description",
          "type": "string"
        },
        {
          "indexed": false,
          "internalType": "address",
          "name": "owner",
          "type": "address"
        },
        {
          "indexed": false,
          "internalType": "bool",
          "name": "isPurchased",
          "type": "bool"
        },
        {
          "indexed": false,
          "internalType": "enum SupplyChain.State",
          "name": "state",
          "type": "uint8"
        }
      ],
      "name": "ProductCreated",
      "type": "event"
    },
    {
      "anonymous": false,
      "inputs": [
        {
          "indexed": false,
          "internalType": "uint256",
          "name": "id",
          "type": "uint256"
        },
        {
          "indexed": false,
          "internalType": "address",
          "name": "owner",
          "type": "address"
        },
        {
          "indexed": false,
          "internalType": "bool",
          "name": "isPurchased",
          "type": "bool"
        },
        {
          "indexed": false,
          "internalType": "enum SupplyChain.State",
          "name": "state",
          "type": "uint8"
        }
      ],
      "name": "ProductPurchased",
      "type": "event"
    },
    {
      "anonymous": false,
      "inputs": [
        {
          "indexed": false,
          "internalType": "uint256",
          "name": "id",
          "type": "uint256"
        },
        {
          "indexed": false,
          "internalType": "enum SupplyChain.State",
          "name": "state",
          "type": "uint8"
        }
      ],
      "name": "StateChanged",
      "type": "event"
    },
    {
      "inputs": [],
      "name": "productCount",
      "outputs": [
        {
          "internalType": "uint256",
          "name": "",
          "type": "uint256"
        }
      ],
      "stateMutability": "view",
      "type": "function",
      "constant": true
    },
    {
      "inputs": [
        {
          "internalType": "uint256",
          "name": "",
          "type": "uint256"
        }
      ],
      "name": "products",
      "outputs": [
        {
          "internalType": "uint256",
          "name": "id",
          "type": "uint256"
        },
        {
          "internalType": "string",
          "name": "name",
          "type": "string"
        },
        {
          "internalType": "string",
          "name": "description",
          "type": "string"
        },
        {
          "internalType": "address",
          "name": "owner",
          "type": "address"
        },
        {
          "internalType": "bool",
          "name": "isPurchased",
          "type": "bool"
        },
        {
          "internalType": "enum SupplyChain.State",
          "name": "state",
          "type": "uint8"
        }
      ],
      "stateMutability": "view",
      "type": "function",
      "constant": true
    },
    {
      "inputs": [
        {
          "internalType": "uint256",
          "name": "",
          "type": "uint256"
        },
        {
          "internalType": "uint256",
          "name": "",
          "type": "uint256"
        }
      ],
      "name": "transfers",
      "outputs": [
        {
          "internalType": "uint256",
          "name": "timestamp",
          "type": "uint256"
        },
        {
          "internalType": "address",
          "name": "from",
          "type": "address"
        },
        {
          "internalType": "address",
          "name": "to",
          "type": "address"
        }
      ],
      "stateMutability": "view",
      "type": "function",
      "constant": true
    },
    {
      "inputs": [
        {
          "internalType": "string",
          "name": "_name",
          "type": "string"
        },
        {
          "internalType": "string",
          "name": "_description",
          "type": "string"
        }
      ],
      "name": "createProduct",
      "outputs": [],
      "stateMutability": "nonpayable",
      "type": "function"
    },
    {
      "inputs": [
        {
          "internalType": "uint256",
          "name": "_id",
          "type": "uint256"
        }
      ],
      "name": "purchaseProduct",
      "outputs": [],
      "stateMutability": "payable",
      "type": "function",
      "payable": true
    },
    {
      "inputs": [
        {
          "internalType": "uint256",
          "name": "_id",
          "type": "uint256"
        }
      ],
      "name": "getProduct",
      "outputs": [
        {
          "internalType": "uint256",
          "name": "",
          "type": "uint256"
        },
        {
          "internalType": "string",
          "name": "",
          "type": "string"
        },
        {
          "internalType": "string",
          "name": "",
          "type": "string"
        },
        {
          "internalType": "address",
          "name": "",
          "type": "address"
        },
        {
          "internalType": "bool",
          "name": "",
          "type": "bool"
        },
        {
          "internalType": "enum SupplyChain.State",
          "name": "",
          "type": "uint8"
        }
      ],
      "stateMutability": "view",
      "type": "function",
      "constant": true
    },
    {
      "inputs": [],
      "name": "getAllProducts",
      "outputs": [
        {
          "components": [
            {
              "internalType": "uint256",
              "name": "id",
              "type": "uint256"
            },
            {
              "internalType": "string",
              "name": "name",
              "type": "string"
            },
            {
              "internalType": "string",
              "name": "description",
              "type": "string"
            },
            {
              "internalType": "address",
              "name": "owner",
              "type": "address"
            },
            {
              "internalType": "bool",
              "name": "isPurchased",
              "type": "bool"
            },
            {
              "internalType": "enum SupplyChain.State",
              "name": "state",
              "type": "uint8"
            }
          ],
          "internalType": "struct SupplyChain.Product[]",
          "name": "",
          "type": "tuple[]"
        }
      ],
      "stateMutability": "view",
      "type": "function",
      "constant": true
    },
    {
      "inputs": [
        {
          "internalType": "uint256",
          "name": "_productId",
          "type": "uint256"
        }
      ],
      "name": "getTransfers",
      "outputs": [
        {
          "components": [
            {
              "internalType": "uint256",
              "name": "timestamp",
              "type": "uint256"
            },
            {
              "internalType": "address",
              "name": "from",
              "type": "address"
            },
            {
              "internalType": "address",
              "name": "to",
              "type": "address"
            }
          ],
          "internalType": "struct SupplyChain.Transfer[]",
          "name": "",
          "type": "tuple[]"
        }
      ],
      "stateMutability": "view",
      "type": "function",
      "constant": true
    }
  ],
  "bytecode": "0x60806040526000805534801561001457600080fd5b50611b82806100246000396000f3fe60806040526004361061007b5760003560e01c806387592bce1161004e57806387592bce14610148578063b9db15b414610171578063da9b3410146101b3578063e0f6ef87146101f05761007b565b806302ee3a521461008057806338e76a03146100ab5780637acc0b20146100c7578063804c1a6a14610109575b600080fd5b34801561008c57600080fd5b5061009561021b565b6040516100a2919061131f565b60405180910390f35b6100c560048036038101906100c09190611381565b6104c3565b005b3480156100d357600080fd5b506100ee60048036038101906100e99190611381565b6108ba565b60405161010096959493929190611434565b60405180910390f35b34801561011557600080fd5b50610130600480360381019061012b91906114a3565b610a40565b60405161013f939291906114e3565b60405180910390f35b34801561015457600080fd5b5061016f600480360381019061016a919061164f565b610ac7565b005b34801561017d57600080fd5b5061019860048036038101906101939190611381565b610c73565b6040516101aa96959493929190611434565b60405180910390f35b3480156101bf57600080fd5b506101da60048036038101906101d59190611381565b610e17565b6040516101e791906117b8565b60405180910390f35b3480156101fc57600080fd5b50610205610f3f565b60405161021291906117da565b60405180910390f35b60606000805467ffffffffffffffff81111561023a57610239611524565b5b60405190808252806020026020018201604052801561027357816020015b610260610f45565b8152602001906001900390816102585790505b5090506000600190505b60005481116104bb57600160008281526020019081526020016000206040518060c0016040529081600082015481526020016001820180546102be90611824565b80601f01602080910402602001604051908101604052809291908181526020018280546102ea90611824565b80156103375780601f1061030c57610100808354040283529160200191610337565b820191906000526020600020905b81548152906001019060200180831161031a57829003601f168201915b5050505050815260200160028201805461035090611824565b80601f016020809104026020016040519081016040528092919081815260200182805461037c90611824565b80156103c95780601f1061039e576101008083540402835291602001916103c9565b820191906000526020600020905b8154815290600101906020018083116103ac57829003601f168201915b505050505081526020016003820160009054906101000a900473ffffffffffffffffffffffffffffffffffffffff1673ffffffffffffffffffffffffffffffffffffffff1673ffffffffffffffffffffffffffffffffffffffff1681526020016003820160149054906101000a900460ff161515151581526020016003820160159054906101000a900460ff16600381111561046857610467611182565b5b600381111561047a57610479611182565b5b815250508260018361048c9190611884565b8151811061049d5761049c6118b8565b5b602002602001018190525080806104b3906118e7565b91505061027d565b508091505090565b60006001600083815260200190815260200160002090506000821180156104ec57506000548211155b61052b576040517f08c379a00000000000000000000000000000000000000000000000000000000081526004016105229061197b565b60405180910390fd5b8060030160149054906101000a900460ff161561057d576040517f08c379a0000000000000000000000000000000000000000000000000000000008152600401610574906119e7565b60405180910390fd5b8060030160009054906101000a900473ffffffffffffffffffffffffffffffffffffffff1673ffffffffffffffffffffffffffffffffffffffff163373ffffffffffffffffffffffffffffffffffffffff160361060f576040517f08c379a000000000000000000000000000000000000000000000000000000000815260040161060690611a79565b60405180910390fd5b6002600083815260200190815260200160002060405180606001604052804281526020018360030160009054906101000a900473ffffffffffffffffffffffffffffffffffffffff1673ffffffffffffffffffffffffffffffffffffffff1681526020013373ffffffffffffffffffffffffffffffffffffffff1681525090806001815401808255809150506001900390600052602060002090600302016000909190919091506000820151816000015560208201518160010160006101000a81548173ffffffffffffffffffffffffffffffffffffffff021916908373ffffffffffffffffffffffffffffffffffffffff16021790555060408201518160020160006101000a81548173ffffffffffffffffffffffffffffffffffffffff021916908373ffffffffffffffffffffffffffffffffffffffff1602179055505050338160030160006101000a81548173ffffffffffffffffffffffffffffffffffffffff021916908373ffffffffffffffffffffffffffffffffffffffff16021790555060018160030160146101000a81548160ff02191690831515021790555060018160030160156101000a81548160ff021916908360038111156107d8576107d7611182565b5b02179055507f1c614720a4312ea773fb20bbe4447c388ca6b734417d5550cac3ddce75503c4d82336001806040516108139493929190611a99565b60405180910390a17f6e5220dd7fc6ab134747dc5ff528fb135c8afd98101514b431b1143a50b05f3d82428360030160009054906101000a900473ffffffffffffffffffffffffffffffffffffffff16336040516108749493929190611ade565b60405180910390a17ffafe884515ca1fa5e0bf815ce87ef00b2cdaa0eee590d20376604937937a10bf8260016040516108ae929190611b23565b60405180910390a15050565b60016020528060005260406000206000915090508060000154908060010180546108e390611824565b80601f016020809104026020016040519081016040528092919081815260200182805461090f90611824565b801561095c5780601f106109315761010080835404028352916020019161095c565b820191906000526020600020905b81548152906001019060200180831161093f57829003601f168201915b50505050509080600201805461097190611824565b80601f016020809104026020016040519081016040528092919081815260200182805461099d90611824565b80156109ea5780601f106109bf576101008083540402835291602001916109ea565b820191906000526020600020905b8154815290600101906020018083116109cd57829003601f168201915b5050505050908060030160009054906101000a900473ffffffffffffffffffffffffffffffffffffffff16908060030160149054906101000a900460ff16908060030160159054906101000a900460ff16905086565b60026020528160005260406000208181548110610a5c57600080fd5b9060005260206000209060030201600091509150508060000154908060010160009054906101000a900473ffffffffffffffffffffffffffffffffffffffff16908060020160009054906101000a900473ffffffffffffffffffffffffffffffffffffffff16905083565b600080815480929190610ad9906118e7565b91905055506040518060c0016040528060005481526020018381526020018281526020013373ffffffffffffffffffffffffffffffffffffffff16815260200160001515815260200160006003811115610b3657610b35611182565b5b8152506001600080548152602001908152602001600020600082015181600001556020820151816001019080519060200190610b73929190610fa5565b506040820151816002019080519060200190610b90929190610fa5565b5060608201518160030160006101000a81548173ffffffffffffffffffffffffffffffffffffffff021916908373ffffffffffffffffffffffffffffffffffffffff16021790555060808201518160030160146101000a81548160ff02191690831515021790555060a08201518160030160156101000a81548160ff02191690836003811115610c2357610c22611182565b5b02179055509050507f8094611be499708c48bd8bff50484a01f1fdca5ff5cbd89f71546447f4385870600054838333600080604051610c6796959493929190611434565b60405180910390a15050565b6000606080600080600080600160008981526020019081526020016000209050806000015481600101826002018360030160009054906101000a900473ffffffffffffffffffffffffffffffffffffffff168460030160149054906101000a900460ff168560030160159054906101000a900460ff16848054610cf590611824565b80601f0160208091040260200160405190810160405280929190818152602001828054610d2190611824565b8015610d6e5780601f10610d4357610100808354040283529160200191610d6e565b820191906000526020600020905b815481529060010190602001808311610d5157829003601f168201915b50505050509450838054610d8190611824565b80601f0160208091040260200160405190810160405280929190818152602001828054610dad90611824565b8015610dfa5780601f10610dcf57610100808354040283529160200191610dfa565b820191906000526020600020905b815481529060010190602001808311610ddd57829003601f168201915b505050505093509650965096509650965096505091939550919395565b606060026000838152602001908152602001600020805480602002602001604051908101604052809291908181526020016000905b82821015610f345783829060005260206000209060030201604051806060016040529081600082015481526020016001820160009054906101000a900473ffffffffffffffffffffffffffffffffffffffff1673ffffffffffffffffffffffffffffffffffffffff1673ffffffffffffffffffffffffffffffffffffffff1681526020016002820160009054906101000a900473ffffffffffffffffffffffffffffffffffffffff1673ffffffffffffffffffffffffffffffffffffffff1673ffffffffffffffffffffffffffffffffffffffff168152505081526020019060010190610e4c565b505050509050919050565b60005481565b6040518060c00160405280600081526020016060815260200160608152602001600073ffffffffffffffffffffffffffffffffffffffff16815260200160001515815260200160006003811115610f9f57610f9e611182565b5b81525090565b828054610fb190611824565b90600052602060002090601f016020900481019282610fd3576000855561101a565b82601f10610fec57805160ff191683800117855561101a565b8280016001018555821561101a579182015b82811115611019578251825591602001919060010190610ffe565b5b509050611027919061102b565b5090565b5b8082111561104457600081600090555060010161102c565b5090565b600081519050919050565b600082825260208201905092915050565b6000819050602082019050919050565b6000819050919050565b61108781611074565b82525050565b600081519050919050565b600082825260208201905092915050565b60005b838110156110c75780820151818401526020810190506110ac565b838111156110d6576000848401525b50505050565b6000601f19601f8301169050919050565b60006110f88261108d565b6111028185611098565b93506111128185602086016110a9565b61111b816110dc565b840191505092915050565b600073ffffffffffffffffffffffffffffffffffffffff82169050919050565b600061115182611126565b9050919050565b61116181611146565b82525050565b60008115159050919050565b61117c81611167565b82525050565b7f4e487b7100000000000000000000000000000000000000000000000000000000600052602160045260246000fd5b600481106111c2576111c1611182565b5b50565b60008190506111d3826111b1565b919050565b60006111e3826111c5565b9050919050565b6111f3816111d8565b82525050565b600060c083016000830151611211600086018261107e565b506020830151848203602086015261122982826110ed565b9150506040830151848203604086015261124382826110ed565b91505060608301516112586060860182611158565b50608083015161126b6080860182611173565b5060a083015161127e60a08601826111ea565b508091505092915050565b600061129583836111f9565b905092915050565b6000602082019050919050565b60006112b582611048565b6112bf8185611053565b9350836020820285016112d185611064565b8060005b8581101561130d57848403895281516112ee8582611289565b94506112f98361129d565b925060208a019950506001810190506112d5565b50829750879550505050505092915050565b6000602082019050818103600083015261133981846112aa565b905092915050565b6000604051905090565b600080fd5b600080fd5b61135e81611074565b811461136957600080fd5b50565b60008135905061137b81611355565b92915050565b6000602082840312156113975761139661134b565b5b60006113a58482850161136c565b91505092915050565b6113b781611074565b82525050565b600082825260208201905092915050565b60006113d98261108d565b6113e381856113bd565b93506113f38185602086016110a9565b6113fc816110dc565b840191505092915050565b61141081611146565b82525050565b61141f81611167565b82525050565b61142e816111d8565b82525050565b600060c08201905061144960008301896113ae565b818103602083015261145b81886113ce565b9050818103604083015261146f81876113ce565b905061147e6060830186611407565b61148b6080830185611416565b61149860a0830184611425565b979650505050505050565b600080604083850312156114ba576114b961134b565b5b60006114c88582860161136c565b92505060206114d98582860161136c565b9150509250929050565b60006060820190506114f860008301866113ae565b6115056020830185611407565b6115126040830184611407565b949350505050565b600080fd5b600080fd5b7f4e487b7100000000000000000000000000000000000000000000000000000000600052604160045260246000fd5b61155c826110dc565b810181811067ffffffffffffffff8211171561157b5761157a611524565b5b80604052505050565b600061158e611341565b905061159a8282611553565b919050565b600067ffffffffffffffff8211156115ba576115b9611524565b5b6115c3826110dc565b9050602081019050919050565b82818337600083830152505050565b60006115f26115ed8461159f565b611584565b90508281526020810184848401111561160e5761160d61151f565b5b6116198482856115d0565b509392505050565b600082601f8301126116365761163561151a565b5b81356116468482602086016115df565b91505092915050565b600080604083850312156116665761166561134b565b5b600083013567ffffffffffffffff81111561168457611683611350565b5b61169085828601611621565b925050602083013567ffffffffffffffff8111156116b1576116b0611350565b5b6116bd85828601611621565b9150509250929050565b600081519050919050565b600082825260208201905092915050565b6000819050602082019050919050565b606082016000820151611709600085018261107e565b50602082015161171c6020850182611158565b50604082015161172f6040850182611158565b50505050565b600061174183836116f3565b60608301905092915050565b6000602082019050919050565b6000611765826116c7565b61176f81856116d2565b935061177a836116e3565b8060005b838110156117ab5781516117928882611735565b975061179d8361174d565b92505060018101905061177e565b5085935050505092915050565b600060208201905081810360008301526117d2818461175a565b905092915050565b60006020820190506117ef60008301846113ae565b92915050565b7f4e487b7100000000000000000000000000000000000000000000000000000000600052602260045260246000fd5b6000600282049050600182168061183c57607f821691505b60208210810361184f5761184e6117f5565b5b50919050565b7f4e487b7100000000000000000000000000000000000000000000000000000000600052601160045260246000fd5b600061188f82611074565b915061189a83611074565b9250828210156118ad576118ac611855565b5b828203905092915050565b7f4e487b7100000000000000000000000000000000000000000000000000000000600052603260045260246000fd5b60006118f282611074565b91507fffffffffffffffffffffffffffffffffffffffffffffffffffffffffffffffff820361192457611923611855565b5b600182019050919050565b7f50726f6475637420646f6573206e6f742065786973742e000000000000000000600082015250565b60006119656017836113bd565b91506119708261192f565b602082019050919050565b6000602082019050818103600083015261199481611958565b9050919050565b7f50726f6475637420616c7265616479207075726368617365642e000000000000600082015250565b60006119d1601a836113bd565b91506119dc8261199b565b602082019050919050565b60006020820190508181036000830152611a00816119c4565b9050919050565b7f4f776e65722063616e6e6f74207075726368617365207468656972206f776e2060008201527f70726f647563742e000000000000000000000000000000000000000000000000602082015250565b6000611a636028836113bd565b9150611a6e82611a07565b604082019050919050565b60006020820190508181036000830152611a9281611a56565b9050919050565b6000608082019050611aae60008301876113ae565b611abb6020830186611407565b611ac86040830185611416565b611ad56060830184611425565b95945050505050565b6000608082019050611af360008301876113ae565b611b0060208301866113ae565b611b0d6040830185611407565b611b1a6060830184611407565b95945050505050565b6000604082019050611b3860008301856113ae565b611b456020830184611425565b939250505056fea26469706673582212204dd3f5e06095c5345614f79607ee820650148bc140ce28bcbc4b3b066722c42b64736f6c634300080d0033",
  "immutableReferences": {},
  "source": "// SPDX-License-Identifier: MIT\npragma solidity ^0.8.0;\n\ncontract SupplyChain {\n    uint public productCount = 0;\n    mapping(uint => Product) public products;\n    mapping(uint => Transfer[]) public transfers;\n\n    enum State {\n        Manufacturing,\n        InTransit,\n        Delivered,\n        Received\n    }\n\n    struct Product {\n        uint id;\n        string name;\n        string description;\n        address owner;\n        bool isPurchased;\n        State state;\n    }\n\n    struct Transfer {\n        uint timestamp;\n        address from;\n        address to;\n    }\n\n    event ProductCreated(uint id, string name, string description, address owner, bool isPurchased, State state);\n    event ProductPurchased(uint id, address owner, bool isPurchased, State state);\n    event OwnershipTransferred(uint productId, uint timestamp, address from, address to);\n    event StateChanged(uint id, State state);\n\n    function createProduct(string memory _name, string memory _description) public {\n        productCount++;\n        products[productCount] = Product(productCount, _name, _description, msg.sender, false, State.Manufacturing);\n        emit ProductCreated(productCount, _name, _description, msg.sender, false, State.Manufacturing);\n    }\n\n    function purchaseProduct(uint _id) public payable {\n        Product storage _product = products[_id];\n        require(_id > 0 && _id <= productCount, \"Product does not exist.\");\n        require(!_product.isPurchased, \"Product already purchased.\");\n        require(msg.sender != _product.owner, \"Owner cannot purchase their own product.\");\n\n        transfers[_id].push(Transfer(block.timestamp, _product.owner, msg.sender));\n        _product.owner = msg.sender;\n        _product.isPurchased = true;\n        _product.state = State.InTransit; // Set the state to InTransit upon purchase\n\n        emit ProductPurchased(_id, msg.sender, true, State.InTransit);\n        emit OwnershipTransferred(_id, block.timestamp, _product.owner, msg.sender);\n        emit StateChanged(_id, State.InTransit);\n    }\n\n    function getProduct(uint _id) public view returns (uint, string memory, string memory, address, bool, State) {\n        Product storage product = products[_id];\n        return (product.id, product.name, product.description, product.owner, product.isPurchased, product.state);\n    }\n\n    function getAllProducts() public view returns (Product[] memory) {\n        Product[] memory items = new Product[](productCount);\n        for (uint i = 1; i <= productCount; i++) {\n            items[i - 1] = products[i];\n        }\n        return items;\n    }\n   \n    function getTransfers(uint _productId) public view returns (Transfer[] memory) {\n    return transfers[_productId];\n}\n\n}\n",
  "sourcePath": "/home/qsfl//SupplyChainProject/contracts/SupplyChain.sol",
  "compiler": {
    "name": "solc",
    "version": "0.8.13+commit.abaa5c0e.Emscripten.clang"
  },
  "schemaVersion": "3.4.16",
  "updatedAt": "2024-05-10T09:02:18.082Z",
  "networkType": "ethereum",
  "devdoc": {
    "kind": "dev",
    "methods": {},
    "version": 1
  },
  "userdoc": {
    "kind": "user",
    "methods": {},
    "version": 1
  }
}